:0400000080EF00F09D
:10000800FACF04F0FBCF05F0E9CF06F0EACF07F00E
:10001800E1CF08F0E2CF09F0D9CF0AF0DACF0BF040
:10002800F3CF0CF0F4CF0DF0F6CF0EF0F7CF0FF0C2
:10003800F8CF10F0F5CF11F0F2A441D0F294000EF1
:10004800D76E060ED66E000E806E4F6603D05AC06D
:1000580083FF23D04F50010D410EF324D96E000EBB
:10006800F420DA6EDF50016E0150010D500EF324BA
:10007800D96E000EF420DA6EDF50026E4F50020A7D
:10008800D8A402D0010E01D0000E036E000E03B0FA
:10009800800E036E03500224836E4FC001F0010EE0
:1000A800026E012A02D0D8900236012EFCD70250E7
:1000B800806E4F2A030E4F6402D0000E4F6E11C09F
:1000C800F5FF10C0F8FF0FC0F7FF0EC0F6FF0DC018
:1000D800F4FF0CC0F3FF0BC0DAFF0AC0D9FF09C058
:1000E800E2FF08C0E1FF07C0EAFF06C0E9FF05C05C
:1000F800FBFF04C0FAFF1100D4EF02F0000E0F015D
:10010800386FF00E926E000E806E000E0F013B6F7E
:10011800000E956E000E836E020E0F013C6F7F0E6F
:10012800966EC30ED56EA10EC06E000EC16EC2943F
:10013800C286C288C29AC29CC280C282F28AF28CEB
:10014800F28EC2B24AD0C4CF31F0030E311631500C
:10015800336E326AC35032244D6E000E33204E6E19
:10016800C2824DC012F04EC013F0146A156A500EC8
:10017800166EC30E176E000E186E000E196EA9ECDF
:1001880002F012C01EF013C01FF014C020F015C0FA
:1001980021F0FF0E226E030E236E000E246E000E59
:1001A800256EB7EC01F01EC045F01FC046F020C018
:1001B80047F021C048F0100E455C270E4658000E47
:1001C8004758000E4858D8A008D00F0E456E270E85
:1001D800466E000E476E000E486E45C018F046C0C9
:1001E80019F047C01AF048C01BF0E80E1C6E030E49
:1001F8001D6E000E1E6E000E1F6E35EC02F018C04C
:1002080031F019C032F01AC033F01BC034F031504D
:10021800446E44C012F0136A030E156EE80E146E95
:10022800EDEC02F012C031F013C032F0000E32BE15
:10023800FF0E336E346E311E321E331E341E312AC9
:10024800000E32223322342245503124186E465093
:100258003220196E475033201A6E485034201B6ED6
:10026800640E1C6E000E1D6E000E1E6E000E1F6EBC
:1002780035EC02F018C035F019C036F01AC037F066
:100288001BC038F03550436E4350640DF3CF31F046
:10029800F4CF32F0000E32BEFF0E336E346E44C01F
:1002A80012F0136A030E156EE80E146EEDEC02F0F0
:1002B80012C035F013C036F0000E36BEFF0E376E92
:1002C800386E31503524396E325036203A6E3350FC
:1002D80037203B6E345038203C6E391E3A1E3B1E88
:1002E8003C1E392A000E3A223B223C224550392432
:1002F800186E46503A20196E47503B201A6E4850E7
:100308003C201B6E0A0E1C6E000E1D6E000E1E6E2B
:10031800000E1F6E35EC02F018C03DF019C03EF01B
:100328001AC03FF01BC040F03D50426E45C012F06D
:1003380046C013F047C014F048C015F00A0E166EF8
:10034800000E176E000E186E000E196E76EC02F095
:1003580012C031F013C032F014C033F015C034F0BD
:100368003150416EEED6000E276E2550800A800F60
:1003780008E1000E245C05E1000E235C02E1000E9A
:10038800225CD8B00AD0251E241E231E226C000E23
:10039800232224222522010E276E2150800A800F55
:1003A80008E1000E205C05E1000E1F5C02E1000E72
:1003B8001E5CD8B00AD0211E201E1F1E1E6C000E07
:1003C8001F2220222122010E271A000E286E000E5D
:1003D800296E000E2A6E000E2B6E25502210231057
:1003E8002410D8B42AD0010E266E06D0D890223612
:1003F800233624362536262A25AEF8D7D89028362F
:1004080029362A362B3622501E5C23501F5824507A
:10041800205825502158D8A009D022501E5E2350BC
:100428001F5A2450205A2550215A2880D890253206
:10043800243223322232262EE1D72750D8B408D0CE
:100448002B1E2A1E291E286C000E29222A222B2246
:1004580028C01EF029C01FF02AC020F02BC021F0B0
:100468001200000E206E000E216E000E226E000E8D
:10047800236E1F501C101D101E10D8B42AD0010E58
:10048800246E06D0D8901C361D361E361F36242AF8
:100498001FAEF8D7D89020362136223623361C5086
:1004A800185C1D5019581E501A581F501B58D8A0B8
:1004B80009D01C50185E1D50195A1E501A5A1F5048
:1004C8001B5A2080D8901F321E321D321C32242E17
:1004D800E1D720C018F021C019F022C01AF023C0BB
:1004E8001BF012001950161017101810D8B424D089
:1004F800010E1A6E06D0D8901636173618361936E9
:100508001A2A19AEF8D71650125C175013581850FB
:10051800145819501558D8A008D01650125E175004
:10052800135A1850145A1950155AD89019321832AB
:10053800173216321A2EE7D712C012F013C013F072
:1005480014C014F015C015F01200000E1A6E000E3B
:100558001B6E000E1C6E000E1D6E12A008D01650E9
:100568001A2617501B2218501C2219501D22D890E9
:100578001636173618361936D89015321432133203
:1005880012321550121013101410D8A4E6D71AC03E
:1005980012F01BC013F01CC014F01DC015F012009F
:1005A80000EE41F00F0EEE6AE806FDE1000EF66E71
:1005B800060EF76E000EF86E00EE50F010EE0BF01F
:1005C8000900F5CFEEFFE550E150FAE1000182EFB6
:1005D80000F012501402F3CF16F0F4CF17F01250B7
:1005E8001502F350172613501402F350172616C09D
:1005F80012F017C013F012003F065B4F666D7D07BF
:040608007F6F3900C7
:020000040020DA
:08000000FFFFFFFFFFFFFFFF00
:020000040030CA
:0E000000FF221F3CFFBF85FF0FC00FE00F4027
:00000001FF
